:02000000FD2BD6
:10069C0083169F010730831299009F01A401A301C7
:1006AC008316051485140515051285128312850110
:1006BC0083120518622B632BF12B1430A1007930B7
:1006CC00A000A00B672BA10B672B6C2B83120518BA
:1006DC00702B712BF12B0230A2000430A100BA3028
:1006EC00A000A00B772BA10B772BA20B772B000074
:1006FC008312051C822B832BD02B2308031D872BE5
:10070C00882BAC2B2403031D8C2B8D2B992BA40134
:10071C000D30A100FB30A000A00B922BA10B922B53
:10072C00972B831285122408031D9D2B9E2BF12BD6
:10073C00A401A40A0D30A100FB30A000A00BA42B37
:10074C00A10BA42BA92B83128516F12B2403031DBB
:10075C00B02BB12BBD2BA4010D30A100FB30A000A0
:10076C00A00BB62BA10BB62BBB2B831205122408A6
:10077C00031DC12BC22BF12BA401A40A0D30A10027
:10078C00FB30A000A00BC82BA10BC82BCD2B8312C8
:10079C000516F12B2303031DD42BD52BDF2BA30123
:1007AC000D30A100FB30A000A00BDA2BA10BDA2B33
:1007BC00DF2B83122308031DE42BE52BF12BA30164
:1007CC00A30A0D30A100FB30A000A00BEB2BA10B5A
:1007DC00EB2BF02BF12B0D308312A100FB30A00082
:1007EC00A00BF62BA10BF62BFB2B5E2B0028830109
:0207FC004E2B82
:08400000FF3FFF3FFF3FFF3FC0
:02400E009431EB
:00000001FF
